{
  "_format": "hh3-artifact-1",
  "contractName": "AIJudge",
  "sourceName": "contracts/AIJudge.sol",
  "abi": [
    {
      "anonymous": false,
      "inputs": [
        {
          "indexed": true,
          "internalType": "uint256",
          "name": "bountyId",
          "type": "uint256"
        },
        {
          "indexed": false,
          "internalType": "bytes",
          "name": "aiReview",
          "type": "bytes"
        }
      ],
      "name": "AllAnswersJudged",
      "type": "event"
    },
    {
      "anonymous": false,
      "inputs": [
        {
          "indexed": true,
          "internalType": "uint256",
          "name": "bountyId",
          "type": "uint256"
        },
        {
          "indexed": true,
          "internalType": "address",
          "name": "submitter",
          "type": "address"
        }
      ],
      "name": "AnswerRevealed",
      "type": "event"
    },
    {
      "anonymous": false,
      "inputs": [
        {
          "indexed": true,
          "internalType": "uint256",
          "name": "bountyId",
          "type": "uint256"
        },
        {
          "indexed": true,
          "internalType": "address",
          "name": "owner",
          "type": "address"
        },
        {
          "indexed": false,
          "internalType": "string",
          "name": "title",
          "type": "string"
        },
        {
          "indexed": false,
          "internalType": "uint256",
          "name": "reward",
          "type": "uint256"
        },
        {
          "indexed": false,
          "internalType": "uint256",
          "name": "deadline",
          "type": "uint256"
        },
        {
          "indexed": false,
          "internalType": "uint256",
          "name": "revealDeadline",
          "type": "uint256"
        }
      ],
      "name": "BountyCreated",
      "type": "event"
    },
    {
      "anonymous": false,
      "inputs": [
        {
          "indexed": true,
          "internalType": "uint256",
          "name": "bountyId",
          "type": "uint256"
        },
        {
          "indexed": true,
          "internalType": "address",
          "name": "submitter",
          "type": "address"
        },
        {
          "indexed": false,
          "internalType": "bytes32",
          "name": "commitment",
          "type": "bytes32"
        }
      ],
      "name": "CommitmentSubmitted",
      "type": "event"
    },
    {
      "anonymous": false,
      "inputs": [
        {
          "indexed": true,
          "internalType": "uint256",
          "name": "bountyId",
          "type": "uint256"
        },
        {
          "indexed": true,
          "internalType": "uint256",
          "name": "winnerIndex",
          "type": "uint256"
        },
        {
          "indexed": true,
          "internalType": "address",
          "name": "winner",
          "type": "address"
        },
        {
          "indexed": false,
          "internalType": "uint256",
          "name": "reward",
          "type": "uint256"
        }
      ],
      "name": "WinnerFinalized",
      "type": "event"
    },
    {
      "inputs": [],
      "name": "MAX_ANSWER_LENGTH",
      "outputs": [
        {
          "internalType": "uint256",
          "name": "",
          "type": "uint256"
        }
      ],
      "stateMutability": "view",
      "type": "function"
    },
    {
      "inputs": [],
      "name": "MAX_SUBMISSIONS",
      "outputs": [
        {
          "internalType": "uint256",
          "name": "",
          "type": "uint256"
        }
      ],
      "stateMutability": "view",
      "type": "function"
    },
    {
      "inputs": [
        {
          "internalType": "uint256",
          "name": "",
          "type": "uint256"
        }
      ],
      "name": "bounties",
      "outputs": [
        {
          "internalType": "address",
          "name": "owner",
          "type": "address"
        },
        {
          "internalType": "string",
          "name": "title",
          "type": "string"
        },
        {
          "internalType": "string",
          "name": "rubric",
          "type": "string"
        },
        {
          "internalType": "uint256",
          "name": "reward",
          "type": "uint256"
        },
        {
          "internalType": "uint256",
          "name": "deadline",
          "type": "uint256"
        },
        {
          "internalType": "uint256",
          "name": "revealDeadline",
          "type": "uint256"
        },
        {
          "internalType": "bool",
          "name": "judged",
          "type": "bool"
        },
        {
          "internalType": "bool",
          "name": "finalized",
          "type": "bool"
        },
        {
          "internalType": "bytes",
          "name": "aiReview",
          "type": "bytes"
        },
        {
          "internalType": "uint256",
          "name": "winnerIndex",
          "type": "uint256"
        }
      ],
      "stateMutability": "view",
      "type": "function"
    },
    {
      "inputs": [
        {
          "internalType": "uint256",
          "name": "",
          "type": "uint256"
        },
        {
          "internalType": "address",
          "name": "",
          "type": "address"
        }
      ],
      "name": "commitments",
      "outputs": [
        {
          "internalType": "bytes32",
          "name": "",
          "type": "bytes32"
        }
      ],
      "stateMutability": "view",
      "type": "function"
    },
    {
      "inputs": [
        {
          "internalType": "string",
          "name": "title",
          "type": "string"
        },
        {
          "internalType": "string",
          "name": "rubric",
          "type": "string"
        },
        {
          "internalType": "uint256",
          "name": "deadline",
          "type": "uint256"
        },
        {
          "internalType": "uint256",
          "name": "revealDeadline",
          "type": "uint256"
        }
      ],
      "name": "createBounty",
      "outputs": [
        {
          "internalType": "uint256",
          "name": "bountyId",
          "type": "uint256"
        }
      ],
      "stateMutability": "payable",
      "type": "function"
    },
    {
      "inputs": [
        {
          "internalType": "uint256",
          "name": "bountyId",
          "type": "uint256"
        },
        {
          "internalType": "uint256",
          "name": "winnerIndex",
          "type": "uint256"
        }
      ],
      "name": "finalizeWinner",
      "outputs": [],
      "stateMutability": "nonpayable",
      "type": "function"
    },
    {
      "inputs": [
        {
          "internalType": "uint256",
          "name": "bountyId",
          "type": "uint256"
        }
      ],
      "name": "getBounty",
      "outputs": [
        {
          "internalType": "address",
          "name": "owner",
          "type": "address"
        },
        {
          "internalType": "string",
          "name": "title",
          "type": "string"
        },
        {
          "internalType": "string",
          "name": "rubric",
          "type": "string"
        },
        {
          "internalType": "uint256",
          "name": "reward",
          "type": "uint256"
        },
        {
          "internalType": "uint256",
          "name": "deadline",
          "type": "uint256"
        },
        {
          "internalType": "uint256",
          "name": "revealDeadline",
          "type": "uint256"
        },
        {
          "internalType": "bool",
          "name": "judged",
          "type": "bool"
        },
        {
          "internalType": "bool",
          "name": "finalized",
          "type": "bool"
        },
        {
          "internalType": "uint256",
          "name": "submissionCount",
          "type": "uint256"
        },
        {
          "internalType": "uint256",
          "name": "winnerIndex",
          "type": "uint256"
        },
        {
          "internalType": "bytes",
          "name": "aiReview",
          "type": "bytes"
        }
      ],
      "stateMutability": "view",
      "type": "function"
    },
    {
      "inputs": [
        {
          "internalType": "uint256",
          "name": "bountyId",
          "type": "uint256"
        },
        {
          "internalType": "uint256",
          "name": "index",
          "type": "uint256"
        }
      ],
      "name": "getSubmission",
      "outputs": [
        {
          "internalType": "address",
          "name": "submitter",
          "type": "address"
        },
        {
          "internalType": "string",
          "name": "answer",
          "type": "string"
        }
      ],
      "stateMutability": "view",
      "type": "function"
    },
    {
      "inputs": [
        {
          "internalType": "uint256",
          "name": "",
          "type": "uint256"
        },
        {
          "internalType": "address",
          "name": "",
          "type": "address"
        }
      ],
      "name": "hasRevealed",
      "outputs": [
        {
          "internalType": "bool",
          "name": "",
          "type": "bool"
        }
      ],
      "stateMutability": "view",
      "type": "function"
    },
    {
      "inputs": [
        {
          "internalType": "uint256",
          "name": "bountyId",
          "type": "uint256"
        },
        {
          "internalType": "bytes",
          "name": "llmInput",
          "type": "bytes"
        }
      ],
      "name": "judgeAll",
      "outputs": [],
      "stateMutability": "nonpayable",
      "type": "function"
    },
    {
      "inputs": [],
      "name": "nextBountyId",
      "outputs": [
        {
          "internalType": "uint256",
          "name": "",
          "type": "uint256"
        }
      ],
      "stateMutability": "view",
      "type": "function"
    },
    {
      "inputs": [
        {
          "internalType": "uint256",
          "name": "bountyId",
          "type": "uint256"
        },
        {
          "internalType": "string",
          "name": "answer",
          "type": "string"
        },
        {
          "internalType": "bytes32",
          "name": "salt",
          "type": "bytes32"
        }
      ],
      "name": "revealAnswer",
      "outputs": [],
      "stateMutability": "nonpayable",
      "type": "function"
    },
    {
      "inputs": [
        {
          "internalType": "uint256",
          "name": "bountyId",
          "type": "uint256"
        },
        {
          "internalType": "bytes32",
          "name": "commitment",
          "type": "bytes32"
        }
      ],
      "name": "submitCommitment",
      "outputs": [],
      "stateMutability": "nonpayable",
      "type": "function"
    }
  ],
  "bytecode": "0x608060405260015f81905580546001600160a01b03191673532f0df0896f353d8c3dd8cc134e8129da2a3948179055348015610039575f80fd5b50611d61806100475f395ff3fe6080604052600436106100bf575f3560e01c8063dc2f87441161007c578063e90d4c0611610057578063e90d4c0614610226578063ee8c4bbf1461025c578063fd14fad414610292578063fd3a8329146102a6575f80fd5b8063dc2f8744146101bf578063e31202c0146101f4578063e6a3d9dc14610207575f80fd5b806316b5551d146100c35780635a7722f1146101115780638e78968314610132578063b7ed707114610154578063d5198a7114610181578063d8964ee9146101a0575b5f80fd5b3480156100ce575f80fd5b506100fc6100dd36600461146e565b600460209081525f928352604080842090915290825290205460ff1681565b60405190151581526020015b60405180910390f35b34801561011c575f80fd5b5061013061012b3660046114a7565b6102bb565b005b34801561013d575f80fd5b50610146600a81565b604051908152602001610108565b34801561015f575f80fd5b5061017361016e3660046114a7565b610520565b604051610108929190611514565b34801561018c575f80fd5b5061013061019b366004611584565b61067b565b3480156101ab575f80fd5b506101306101ba3660046115d3565b6109ff565b3480156101ca575f80fd5b506101de6101d936600461161b565b610cab565b6040516101089a99989796959493929190611632565b6101466102023660046116ba565b610ea0565b348015610212575f80fd5b506101306102213660046114a7565b610fed565b348015610231575f80fd5b5061014661024036600461146e565b600360209081525f928352604080842090915290825290205481565b348015610267575f80fd5b5061027b61027636600461161b565b61112b565b6040516101089b9a99989796959493929190611732565b34801561029d575f80fd5b506101465f5481565b3480156102b1575f80fd5b506101466107d081565b5f8281526002602052604090205482906001600160a01b03166102f95760405162461bcd60e51b81526004016102f0906117c1565b60405180910390fd5b5f8381526002602052604090205483906001600160a01b031633146103535760405162461bcd60e51b815260206004820152601060248201526f3737ba103137bab73a3c9037bbb732b960811b60448201526064016102f0565b5f848152600260205260409020600681015460ff166103a55760405162461bcd60e51b815260206004820152600e60248201526d1b9bdd081a9d5919d959081e595d60921b60448201526064016102f0565b6006810154610100900460ff16156103f35760405162461bcd60e51b8152602060048201526011602482015270185b1c9958591e48199a5b985b1a5e9959607a1b60448201526064016102f0565b60068101805461ff001916610100179055600881018490556009810180545f919086908110610424576104246117eb565b5f918252602082206002919091020154600384018054908390556040516001600160a01b0390921693509190839083908381818185875af1925050503d805f811461048a576040519150601f19603f3d011682016040523d82523d5f602084013e61048f565b606091505b50509050806104d15760405162461bcd60e51b815260206004820152600e60248201526d1c185e5b595b9d0819985a5b195960921b60448201526064016102f0565b826001600160a01b031687897f2eb0120759ae6dd1505f3f092609ec7e75433fb2401ad648ebeb5bd4bd55e5b68560405161050e91815260200190565b60405180910390a45050505050505050565b5f8281526002602052604081205460609084906001600160a01b03166105585760405162461bcd60e51b81526004016102f0906117c1565b5f858152600260205260409020600981015485106105a85760405162461bcd60e51b815260206004820152600d60248201526c0d2dcecc2d8d2c840d2dcc8caf609b1b60448201526064016102f0565b5f8160090186815481106105be576105be6117eb565b5f918252602090912060029091020180546001820180549293506001600160a01b039091169181906105ef906117ff565b80601f016020809104026020016040519081016040528092919081815260200182805461061b906117ff565b80156106665780601f1061063d57610100808354040283529160200191610666565b820191905f5260205f20905b81548152906001019060200180831161064957829003601f168201915b50505050509050945094505050509250929050565b5f8481526002602052604090205484906001600160a01b03166106b05760405162461bcd60e51b81526004016102f0906117c1565b5f858152600260205260409020600481015442116107105760405162461bcd60e51b815260206004820152601d60248201527f7375626d697373696f6e207068617365207374696c6c2061637469766500000060448201526064016102f0565b80600501544211156107595760405162461bcd60e51b81526020600482015260126024820152711c995d99585b081c1a185cd948195b99195960721b60448201526064016102f0565b5f86815260046020908152604080832033845290915290205460ff16156107b55760405162461bcd60e51b815260206004820152601060248201526f185b1c9958591e481c995d99585b195960821b60448201526064016102f0565b6009810154600a116108005760405162461bcd60e51b8152602060048201526014602482015273746f6f206d616e79207375626d697373696f6e7360601b60448201526064016102f0565b6107d08411156108445760405162461bcd60e51b815260206004820152600f60248201526e616e7377657220746f6f206c6f6e6760881b60448201526064016102f0565b5f868152600360209081526040808320338452909152902054806108a05760405162461bcd60e51b81526020600482015260136024820152721b9bc818dbdb5b5a5d1b595b9d08199bdd5b99606a1b60448201526064016102f0565b80868686338b6040516020016108ba959493929190611837565b604051602081830303815290604052805190602001201461090e5760405162461bcd60e51b815260206004820152600e60248201526d1a5b9d985b1a59081c995d99585b60921b60448201526064016102f0565b5f8781526004602090815260408083203380855290835292819020805460ff19166001179055805180820182529283528051601f890183900483028101830190915287815260098501929182810191908a908a90819084018382808284375f920182905250939094525050835460018082018655948252602091829020845160029092020180546001600160a01b0319166001600160a01b03909216919091178155908301519293909290830191506109c790826118c8565b505060405133915088907f6f30d8f6c98d8fa219bfafa662ad220e3b7d642ea3fe8a284b9692cfcb894edb905f90a350505050505050565b5f8381526002602052604090205483906001600160a01b0316610a345760405162461bcd60e51b81526004016102f0906117c1565b5f8481526002602052604090205484906001600160a01b03163314610a8e5760405162461bcd60e51b815260206004820152601060248201526f3737ba103137bab73a3c9037bbb732b960811b60448201526064016102f0565b5f85815260026020526040902060058101544211610aee5760405162461bcd60e51b815260206004820152601960248201527f72657665616c207068617365207374696c6c206163746976650000000000000060448201526064016102f0565b600681015460ff1615610b345760405162461bcd60e51b815260206004820152600e60248201526d185b1c9958591e481a9d5919d95960921b60448201526064016102f0565b6006810154610100900460ff1615610b825760405162461bcd60e51b8152602060048201526011602482015270185b1c9958591e48199a5b985b1a5e9959607a1b60448201526064016102f0565b6009810154610bc45760405162461bcd60e51b815260206004820152600e60248201526d6e6f207375626d697373696f6e7360901b60448201526064016102f0565b5f610c0661080287878080601f0160208091040260200160405190810160405280939291908181526020018383808284375f9201919091525061139a92505050565b90505f805f83806020019051810190610c1f9190611ab7565b509350509250925082158190610c485760405162461bcd60e51b81526004016102f09190611b74565b5060068501805460ff1916600117905560078501610c6683826118c8565b50897fb51288ae628dca25614026175dc22a78631acc1a31f034c68c3fa241ca0fd05c83604051610c979190611b74565b60405180910390a250505050505050505050565b60026020525f9081526040902080546001820180546001600160a01b039092169291610cd6906117ff565b80601f0160208091040260200160405190810160405280929190818152602001828054610d02906117ff565b8015610d4d5780601f10610d2457610100808354040283529160200191610d4d565b820191905f5260205f20905b815481529060010190602001808311610d3057829003601f168201915b505050505090806002018054610d62906117ff565b80601f0160208091040260200160405190810160405280929190818152602001828054610d8e906117ff565b8015610dd95780601f10610db057610100808354040283529160200191610dd9565b820191905f5260205f20905b815481529060010190602001808311610dbc57829003601f168201915b50505050600383015460048401546005850154600686015460078701805496979496939550919360ff8083169461010090930416929091610e19906117ff565b80601f0160208091040260200160405190810160405280929190818152602001828054610e45906117ff565b8015610e905780601f10610e6757610100808354040283529160200191610e90565b820191905f5260205f20905b815481529060010190602001808311610e7357829003601f168201915b505050505090806008015490508a565b5f803411610ee25760405162461bcd60e51b815260206004820152600f60248201526e1c995dd85c99081c995c5d5a5c9959608a1b60448201526064016102f0565b828211610f315760405162461bcd60e51b815260206004820152601d60248201527f72657665616c206d75737420626520616674657220646561646c696e6500000060448201526064016102f0565b5f80549080610f3f83611b8d565b909155505f81815260026020526040902080546001600160a01b0319163317815590915060018101610f72888a83611bb1565b5060028101610f82868883611bb1565b50346003820181905560048201859055600582018490555f196008830155604051339184917f736ab752f6714f3191bc874ebe0b24d2daa1e5a5281882b7c59d90d19c45fda491610fda918d918d918b908b90611c6b565b60405180910390a3509695505050505050565b5f8281526002602052604090205482906001600160a01b03166110225760405162461bcd60e51b81526004016102f0906117c1565b5f838152600260205260409020600481015442111561107c5760405162461bcd60e51b81526020600482015260166024820152751cdd589b5a5cdcda5bdb881c1a185cd948195b99195960521b60448201526064016102f0565b5f848152600360209081526040808320338452909152902054156110d65760405162461bcd60e51b8152602060048201526011602482015270185b1c9958591e4818dbdb5b5a5d1d1959607a1b60448201526064016102f0565b5f84815260036020908152604080832033808552908352928190208690555185815286917f6459ffc8e2e6aea1e7a6161f54ca96e0b0c83db7191f26ccf5c33e14f7f178c5910160405180910390a350505050565b5f818152600260205260408120546060908190839081908190819081908190819088908c906001600160a01b03166111755760405162461bcd60e51b81526004016102f0906117c1565b5f8d8152600260208190526040909120805460038201546004830154600584015460068501546009860154600887015460018801805498996001600160a01b039098169890978a019695949360ff808216946101009092041692909160078c01908a906111e1906117ff565b80601f016020809104026020016040519081016040528092919081815260200182805461120d906117ff565b80156112585780601f1061122f57610100808354040283529160200191611258565b820191905f5260205f20905b81548152906001019060200180831161123b57829003601f168201915b5050505050995088805461126b906117ff565b80601f0160208091040260200160405190810160405280929190818152602001828054611297906117ff565b80156112e25780601f106112b9576101008083540402835291602001916112e2565b820191905f5260205f20905b8154815290600101906020018083116112c557829003601f168201915b505050505098508080546112f5906117ff565b80601f0160208091040260200160405190810160405280929190818152602001828054611321906117ff565b801561136c5780601f106113435761010080835404028352916020019161136c565b820191905f5260205f20905b81548152906001019060200180831161134f57829003601f168201915b505050505090509c509c509c509c509c509c509c509c509c509c509c50505091939597999b90929496989a50565b60605f80846001600160a01b0316846040516113b69190611cb0565b5f604051808303815f865af19150503d805f81146113ef576040519150601f19603f3d011682016040523d82523d5f602084013e6113f4565b606091505b50915091508161140657805160208201fd5b6001600160a01b038516610801148061142957506001600160a01b038516610802145b8061143e57506001600160a01b03851661081b145b15611464575f818060200190518101906114589190611ccb565b94506114689350505050565b9150505b92915050565b5f806040838503121561147f575f80fd5b8235915060208301356001600160a01b038116811461149c575f80fd5b809150509250929050565b5f80604083850312156114b8575f80fd5b50508035926020909101359150565b5f5b838110156114e15781810151838201526020016114c9565b50505f910152565b5f81518084526115008160208601602086016114c7565b601f01601f19169290920160200192915050565b6001600160a01b03831681526040602082018190525f90611537908301846114e9565b949350505050565b5f8083601f84011261154f575f80fd5b50813567ffffffffffffffff811115611566575f80fd5b60208301915083602082850101111561157d575f80fd5b9250929050565b5f805f8060608587031215611597575f80fd5b84359350602085013567ffffffffffffffff8111156115b4575f80fd5b6115c08782880161153f565b9598909750949560400135949350505050565b5f805f604084860312156115e5575f80fd5b83359250602084013567ffffffffffffffff811115611602575f80fd5b61160e8682870161153f565b9497909650939450505050565b5f6020828403121561162b575f80fd5b5035919050565b6001600160a01b038b168152610140602082018190525f906116568382018d6114e9565b9050828103604084015261166a818c6114e9565b90508960608401528860808401528760a084015286151560c084015285151560e08401528281036101008401526116a181866114e9565b915050826101208301529b9a5050505050505050505050565b5f805f805f80608087890312156116cf575f80fd5b863567ffffffffffffffff808211156116e6575f80fd5b6116f28a838b0161153f565b9098509650602089013591508082111561170a575f80fd5b5061171789828a0161153f565b979a9699509760408101359660609091013595509350505050565b6001600160a01b038c168152610160602082018190525f906117568382018e6114e9565b9050828103604084015261176a818d6114e9565b90508a60608401528960808401528860a084015287151560c084015286151560e084015285610100840152846101208401528281036101408401526117af81856114e9565b9e9d5050505050505050505050505050565b60208082526010908201526f189bdd5b9d1e481b9bdd08199bdd5b9960821b604082015260600190565b634e487b7160e01b5f52603260045260245ffd5b600181811c9082168061181357607f821691505b60208210810361183157634e487b7160e01b5f52602260045260245ffd5b50919050565b8486823790930191825260601b6bffffffffffffffffffffffff191660208201526034810191909152605401919050565b634e487b7160e01b5f52604160045260245ffd5b601f8211156118c357805f5260205f20601f840160051c810160208510156118a15750805b601f840160051c820191505b818110156118c0575f81556001016118ad565b50505b505050565b815167ffffffffffffffff8111156118e2576118e2611868565b6118f6816118f084546117ff565b8461187c565b602080601f831160018114611929575f84156119125750858301515b5f19600386901b1c1916600185901b178555611980565b5f85815260208120601f198616915b8281101561195757888601518255948401946001909101908401611938565b508582101561197457878501515f19600388901b60f8161c191681555b505060018460011b0185555b505050505050565b5f82601f830112611997575f80fd5b815167ffffffffffffffff808211156119b2576119b2611868565b604051601f8301601f19908116603f011681019082821181831017156119da576119da611868565b816040528381528660208588010111156119f2575f80fd5b611a038460208301602089016114c7565b9695505050505050565b5f60608284031215611a1d575f80fd5b6040516060810167ffffffffffffffff8282108183111715611a4157611a41611868565b816040528293508451915080821115611a58575f80fd5b611a6486838701611988565b83526020850151915080821115611a79575f80fd5b611a8586838701611988565b60208401526040850151915080821115611a9d575f80fd5b50611aaa85828601611988565b6040830152505092915050565b5f805f805f60a08688031215611acb575f80fd5b85518015158114611ada575f80fd5b602087015190955067ffffffffffffffff80821115611af7575f80fd5b611b0389838a01611988565b95506040880151915080821115611b18575f80fd5b611b2489838a01611988565b94506060880151915080821115611b39575f80fd5b611b4589838a01611988565b93506080880151915080821115611b5a575f80fd5b50611b6788828901611a0d565b9150509295509295909350565b602081525f611b8660208301846114e9565b9392505050565b5f60018201611baa57634e487b7160e01b5f52601160045260245ffd5b5060010190565b67ffffffffffffffff831115611bc957611bc9611868565b611bdd83611bd783546117ff565b8361187c565b5f601f841160018114611c0e575f8515611bf75750838201355b5f19600387901b1c1916600186901b1783556118c0565b5f83815260208120601f198716915b82811015611c3d5786850135825560209485019460019092019101611c1d565b5086821015611c59575f1960f88860031b161c19848701351681555b505060018560011b0183555050505050565b60808152846080820152848660a08301375f60a086830101525f60a0601f19601f88011683010190508460208301528360408301528260608301529695505050505050565b5f8251611cc18184602087016114c7565b9190910192915050565b5f8060408385031215611cdc575f80fd5b825167ffffffffffffffff80821115611cf3575f80fd5b611cff86838701611988565b93506020850151915080821115611d14575f80fd5b50611d2185828601611988565b915050925092905056fea26469706673582212201d9ff9e2e2077d1df615c01c0f320a11aaadf5c0aeb61c75601c85badf010adb64736f6c63430008180033",
  "linkReferences": {},
  "deployedLinkReferences": {},
  "immutableReferences": {},
  "inputSourceName": "project/contracts/AIJudge.sol",
  "buildInfoId": "solc-0_8_24-ac50399e27e1c2cc128b88afa9756d8b3b0df7b5"
}